:1000000047C0000061C000005FC000005DC000008C
:1000100056C3000059C0000057C0000055C0000082
:1000200053C00000E5C700004FC000004DC00000F5
:100030004BC0000049C0000047C0000045C00000A0
:10004000FFC3000041C000003FC000000C946109E4
:100050000C94F60D39C0000037C0000035C0000018
:1000600033C0000031C000002FC000002DC00000D0
:1000700045032B032B03370349032B032B033D03BA
:100080004E032B032B0342035A032B032B033A0388
:1000900011241FBECFEFD4E0DEBFCDBF12E0A0E041
:1000A000B1E0EAEBFCE302C005900D92A833B10782
:1000B000D9F713E0A8E3B2E001C01D92AD3EB1074D
:1000C000E1F7BFD20C945B1E9BCF90E0880F991F85
:1000D000880F991F6AE070E00E94E91D862F08953D
:1000E000E1E9F2E01192119282E0E93AF807D1F7E2
:1000F00010923D0281E0809354020895AC01DB012F
:1001000002C02F5F2C932C91E22FF0E08091B1017F
:1001100090E00197E817F9072CF4E40FF51F8081B0
:100120008F3F79F708959091630380914302981768
:10013000B8F09091630380910801891788F02091AD
:10014000440230E040E0B9016F5F7F4F80913A0296
:1001500090E00E94E91D8217930719F441E001C065
:1001600040E0842F089589B7816089BF8BE083BF09
:100170008AEF81BF089589B7816089BF8BE087BD11
:1001800082E382BD0895EDE7F0E0808184608083A2
:10019000089580917D00869586958170089580915F
:1001A0005B028B3098F080915B028E3778F460911F
:1001B0005B0284EC99E070E00E94E91D80910701E8
:1001C000681711F4609306016093070110925B02B7
:1001D00008958091380290913902892B41F48091E1
:1001E000000190910101909339028093380220918F
:1001F0003802309139028091020190910301AC01E3
:10020000249FC001259F900D349F900D11242091B3
:10021000040130910501820F931F9093390280935E
:10022000380264E670E00C94D51D159BFECF83B9AF
:1002300080E090E008958F708A3010F4805D01C0F6
:10024000895CF3CF0F931F93CF93DF938C01CCE0A6
:10025000D0E0C8010C2E02C0969587950A94E2F76B
:10026000009709F0E8DF2497A1F7802FE4DFDF9102
:10027000CF911F910F91089522B1332727FD30951B
:100280002227330F221F3327C9010895179BFECF62
:1002900083B190E00895E199FECF9FBB8EBBE09AB9
:1002A0008DB30895E199FECF9FBB8EBB6DBBF894D3
:1002B000E29AE19A7894089581B1886181B983E3E3
:1002C00080B91CBE03C0E2DF8AE0BDD6D5DF892B32
:1002D000D1F70F9A8AB188698AB98FE189B910BCC0
:1002E00080EC8ABB8CE38BBB8BEB87BB18BA8FEFA0
:1002F00084BB81BB86B981E58DB908951F93182F02
:100300008AE893E06AEA73E00E94A715882331F037
:1003100090918702809188029817E9F020E030E000
:10032000F901E657FC4F8081F901E655FC4F8083C7
:100330002F5F3F4F2032310599F7112311F01092B2
:10034000CA031092770280917702809378020E940C
:10035000BC0C0E94FF0C80918802809387028091E0
:100360007802809377021F910895EF92FF920F9386
:100370001F93F82E80918602882329F08091AA028B
:10038000807C8093AA020091AA02CDDEE82E109113
:1003900041021FDF811728F4EE2019F0FF2400E04E
:1003A00015C00F7311F4FF2411C0F00EEE2071F090
:1003B000109140020EDF811710F48CE006C01091FE
:1003C000420207DF811710F484EFF80E40917E029D
:1003D000442351F1002341F120917F0281E990E013
:1003E000821B91092F2D332727FD3095820F931FF4
:1003F0006CE070E00E94E91D992787FD9095242FFD
:1004000030E021503040F901EE0FFF1FE20FF31FE3
:10041000EE0FFF1FEE0FFF1FE80FF91FE65FFE4F05
:10042000808101C084EFF80E8EE38F15DCF303C0EA
:100430008CE0F80E02C0002319F08AE08F15C4F793
:100440008091510280935002F09251028091840277
:100450000091AA020295069506950170082B10914D
:100460003E02B7DE811738F4EE2029F080E0002349
:1004700009F481E0082F60914602609345028F2DB8
:10048000402F0E94F10E8F2D04D61F910F91FF90E7
:10049000EF9008951F93809185029091AA02991F71
:1004A0009927991F982B9093460210913F0291DE55
:1004B000811758F438DE882341F090E0809146029D
:1004C000882309F491E0909346028091AA028F3F1D
:1004D000C1F080914602882321F081E00E94040F40
:1004E00010C080E00E94040F2091AA02822F90E0A9
:1004F0008F739070892B19F08091510201C0822F67
:10050000B1D520914F022F3F79F080914502882389
:1005100059F0822F90E08F739070892B19F08091A1
:10052000500201C0822F9ED51F910895EF92FF9235
:100530000F931F93E82E8093AB028093AC020E942E
:10054000BE0D80E3E89E700111240027F7FC0095A2
:10055000102F60E070E788E399E3A80197010E94FB
:10056000FC1D79018A01C801AA27BB27AC01F092C2
:10057000AE02E092AD0221E020938A00892B61F166
:10058000E2E2F1E0A0E0B0E02A2F80819181809545
:10059000909584239523892BA9F4FD01E25DFE4FFC
:1005A000008004C016950795F794E7940A94D2F753
:1005B000F092AE02E092AD02AC5CBE4F8C918093A3
:1005C0008A0006C02F5F11963296A630B105E1F67B
:1005D000263011F410928A008091AD029091AE0203
:1005E000909581959F4F9093AE028093AD0290932A
:1005F0008900809388001F910F91FF90EF900895DC
:10060000EBE6F0E08081816080838081826080837E
:100610008BB788608BBF86E090E03DDE87DF10926D
:100620003C025EDDEDE7F0E0808184608083089528
:1006300085E20E94C50BEDE7F0E080818B7F80832F
:1006400008950F931F9338DEDBDF8DDDBCD61FD6F8
:10065000789412E001E0A4D78091D702E82FF0E06F
:10066000E031F105C0F7E85CFF4F0C94551E109285
:100670003B0222C010923B0202C000933B020E9448
:100680001016E9CF10933B02FACF10923B0295D59A
:10069000E2CF10923B020E940B0FDDCF10923B0283
:1006A00072DD0E94EE0B7CD78091D7028830D9F39F
:1006B000BFDFD1CF10933B020E942A15CCCF1F92EF
:1006C0000F920FB60F9211241F932F933F934F93C6
:1006D0005F936F937F938F939F93AF93BF93CF93CA
:1006E000DF93EF93FF9319B3137080917D028823FA
:1006F00011F09DE301C09FEF80917D02813019F4DC
:10070000C0E4D2E002C0CCEAD2E080917D02823027
:1007100011F4C2E4D2E080917D02833011F4CFE382
:10072000D2E080917D02843011F4CEE3D2E080915A
:100730007D02853011F4C1E4D2E080917D028630E3
:1007400029F4C9E8D2E094E622E001C021E08091DA
:100750007D02873019F4C2EBD1E096E280917D02F0
:10076000883019F4C4E4D2E09FE080917D028930A2
:1007700019F4C3E4D2E09FE080917D028A3019F43D
:10078000C8E0D1E09FE08091AF02181709F444C09F
:10079000833039F4123071F48881882359F0821B38
:1007A00008C0823039F4133029F48881891710F495
:1007B000820F888380917D02882329F10E94030C97
:1007C00080917D02863020F488818695869519C0B7
:1007D00080917D02863061F4809189029FE0899F3B
:1007E000C001112464E670E00E94E91D862F09C053
:1007F00080917D02873021F48091B20166DC01C0D6
:1008000088810E94100C8091AC02843118F484E13C
:100810008093AC021093AF02FF91EF91DF91CF91E3
:10082000BF91AF919F918F917F916F915F914F9108
:100830003F912F911F910F900FBE0F901F90189511
:100840001F920F920FB60F9211240F931F932F93A5
:100850003F934F935F936F937F938F939F93AF9348
:10086000BF93CF93DF93EF93FF9380915B028F5FF2
:1008700080935B02809168028F3F29F0809168022B
:100880008F5F8093680280917502909176028F5FEE
:100890009F4F49F080917502909176020196909356
:1008A000760280937502809100019091010101967A
:1008B000909301018093000180917902882329F0AF
:1008C0008091790281508093790280913B0281303E
:1008D00071F08091620290916302009741F001975C
:1008E0009093630280936202892B09F4949880911B
:1008F0004B0290914C02009751F0019790934C025B
:1009000080934B02892B19F480914702C3DD8091BB
:100910004D0290914E02009751F0019790934E0234
:1009200080934D02892B19F4809148021EDDC1E9A4
:10093000D2E006E010E0888199818230910518F0BC
:1009400001979983888388819981019769F48091BF
:100950003B02813029F0949A109363020093620263
:1009600088EF7AD31982188282E0C73AD80711F04B
:100970002296E1CF10913B021130C1F490B39295D1
:10098000917080916602882379F4992369F08091AF
:1009900060029091610201969093610280936002DF
:1009A000FEDB1093660202C090936602F2DB88239E
:1009B00099F480915702883C29F4109257020E94C2
:1009C000F10C05C080915702843609F4FDD780915F
:1009D00057028F5F80935702FF91EF91DF91CF9184
:1009E000BF91AF919F918F917F916F915F914F9147
:1009F0003F912F911F910F910F900FBE0F901F905D
:100A00001895A0E0B0E0E7E0F5E00C94251ED0904A
:100A1000D702C090B101F8949090B20180913C024D
:100A2000882341F480915E02882321F410923D02D4
:100A300010925F0280915F02863010F010925F0288
:100A400080915F02882309F064C08091AB0280939B
:100A5000090180913B028150823020F4809106018F
:100A60008093090180913D02883010F010923D0280
:100A700080913D02882309F433DBF0903D028F2DF5
:100A800090E0F0FC43C0EE248370907018161906B5
:100A900014F4EE24E39401E912E0EE2011F0045F77
:100AA0001F4F6091090184EC99E070E00E94E91DFC
:100AB000FB0120E030E0C1E0D0E082E3A82EB12CC1
:100AC000EE2021F0A501421B530B01C0A90180912A
:100AD000890290E060910901DC014A9FC0014B9FAF
:100AE000900D5A9F900D112470E00E94E91D6C0F2B
:100AF0007D1FD8016D937C93285F3F4FCE0FDF1F82
:100B00002033310519F00E5F1F4FDACFF394F092C6
:100B10003D0280915F028F5F80935F0220915E02B1
:100B200030E0C694C69488E190E06C2D70E00E949D
:100B3000E91D2617370774F010925E0280913C027F
:100B400080FD08C090E080915202882309F491E072
:100B50009093520290918902F09009018091B10125
:100B60008F3019F4E0E1F7E202C0ECE4FDE14091DE
:100B70005502442311F0EE0FFF1F8091520288238B
:100B800019F400E010E009C082E3989FC00111242D
:100B90006F2D70E00E94E91D8B0180915E02882319
:100BA00039F080915E028F5F80935E0278941BC261
:100BB00080915E028F5F80935E0280913C0280FD97
:100BC00009C080918903813011F48FE001C080E178
:100BD0008093B10190E080915402882309F491E060
:100BE00090935402442321F480915602882319F0F3
:100BF000992309F0F1C180913C02883010F01092E5
:100C00003C02AEEECA2EC90C80913C0280FFEDC0C2
:100C1000B8E0DB16A9F0BD1540F023E0D216B9F01C
:100C200037E0D31609F445C0BDC18CE0D81679F081
:100C30009FE0D91609F43DC0ABE0DA16D1F1B2C19C
:100C400080E00E94040F8091AA020CD2ABC1809177
:100C50006803882309F4A6C1CC20A1F48091520234
:100C6000882369F080918902882349F010934C020F
:100C700000934B02809177028093470203C08091DA
:100C8000770208DC909163038091B101981748F4D2
:100C9000E0916303F0E0E658FC4F80818F3F09F05C
:100CA00081C11092630380913A028F5F80933A0270
:100CB00079C18091CB03882309F474C1CC20A1F4BD
:100CC00080915202882369F080918902882349F03B
:100CD00010934C0200934B0280917702809347025D
:100CE00003C080917702D6DB80918B02882391F13B
:100CF0002091630330E08091B30190E001972817C1
:100D0000390741F5809178028093770290918E02A5
:100D100080915502891759F090935502909354028F
:100D200010925602992319F481E0809356028AE8C2
:100D300093E06AEA73E00E94A715882359F4909122
:100D4000B1019093630381E08093B3019093B40168
:100D500010928B02909163038091B101981748F42F
:100D6000E0916303F0E0E658FC4F80818F3F09F08B
:100D700019C190918E0280915502891759F0909374
:100D800055029093540210925602992319F481E06F
:100D9000809356021092630380913A028F5F809392
:100DA0003A028091CA038F5F8093CA038091CA037D
:100DB000803240F4E091CA03F0E0E655FC4F8081B8
:100DC0008F3F11F41092CA0381E098DA1091B101BB
:100DD00080918702E091CA03F0E0E655FC4F608104
:100DE0000E947A101093B101DDC0CF016F2D70E029
:100DF0000E94E91DEB017B01EE0CFF1C2BEF3FEF86
:100E0000E20EF31E8091AA0280934F0238E0D316BF
:100E1000B1F03D1540F083E0D81611F197E0D916F6
:100E200009F466C0BFC0ACE0DA16D1F0BFE0DB1653
:100E300009F45EC02BE0D21609F45AC0B3C0809109
:100E4000A9028093AA02C5D98093A9028091AA021F
:100E50008F7360E040E0C5D78091AA021AD1A2C08A
:100E600080916803882309F49DC0CDD480916303E9
:100E7000D7D4E0916303F0E0E658FC4F8081809383
:100E8000AA020E94C015809363039091AA029F3F1B
:100E900009F488C080915302882319F4892FD9D589
:100EA00003C080916203BCD480915202882369F010
:100EB00080918902882349F010934E0200934D02DD
:100EC000809177028093480203C0809177024DDAC7
:100ED000CC2009F467C08C2D992787FD9095DC0103
:100EE000CA9FC001CB9F900DDA9F900D112443C083
:100EF0008091CB03882341F080917D02882321F4E7
:100F000082D4809163038CD48091CB03882309F42D
:100F100049C0E0916303F0E0E658FC4F8081809384
:100F2000AA020E94C015809363038091AA028F3F9A
:100F3000C9F180915202882369F080918902882347
:100F400049F010934E0200934D02809177028093F6
:100F5000480203C08091770208DACC2019F18C2D69
:100F6000992787FD90959C01C29FC001C39F900D5A
:100F7000D29F900D112464E170E00E94E91D6C0F76
:100F80007D1F600F711F70934C0260934B02E61639
:100F9000F70620F4F0924C02E0924B028091770227
:100FA0008093470280917D02882379F480913C02EE
:100FB000843020F485E2BBD314D507C080913C0275
:100FC000883018F485E2E1D3FFD4EED480913C025E
:100FD0008F5F80933C0206C080915602882311F0F7
:100FE000109256027894CDB7DEB7EBE00C94411E18
:100FF0001F920F920FB60F9211242F933F934F938E
:101000005F936F937F938F939F93AF93BF93EF9370
:10101000FF938091AD029091AE02909389008093EE
:101020008800EFDCFF91EF91BF91AF919F918F917D
:101030007F916F915F914F913F912F910F900FBED4
:101040000F901F90189520EA3FE0E22FF32F319781
:10105000F1F78A95D1F708955D9BFECF8CB980E0BA
:1010600090E008951F93182F8091B0028068F4DFFC
:10107000812F90E08F739070892B11F480E003C072
:101080001F73812F875EE8DF80913B01E5DF1F91B1
:1010900008951F93182F8091B0028069DDDF812FA2
:1010A00090E08F739070892B21F480E0D5DF80E091
:1010B00010C0812F8F73875ECFDF812F8295869539
:1010C0008695837080FF03C080913A0102C08091B1
:1010D0003C01C2DF1F91089590915C0280915D02F6
:1010E00020E030E0981711F021E030E0C9010895C8
:1010F00090915C0280915D029817D1F3F8949091E1
:101100005C02E92FF0E0EF54FD4F80819F5F9093E8
:101110005C0290915C029F7190935C02789490E0E5
:101120000895DADF892BB1F0E3DF482F87FF12C083
:10113000582F52955F705F3071F0282F30E02F707C
:1011400030708091D10290E02817390719F450933C
:10115000580201C040E0842F08958091B002806B56
:101160007BDF8BE779DF80E077CF8CEF75DFF5CF22
:1011700090914F02891729F480E046D68FEF809333
:101180004F020895982F262F662321F4882311F00B
:1011900060E0EECF60E080914F028F3F09F061E0A8
:1011A00090934F02992309F499E1892F89512536AB
:1011B00010F041E001C040E014C60F931F9338DAED
:1011C00022D38091D1022CD3EBD184E63CDFE8D14D
:1011D00084E639DFE5D10091DE028FEF80934F0284
:1011E000DFD18091D702882321F0B7DF1F910F91C3
:1011F00008956091DE02061759F06093D10283E0F2
:1012000090E050D800D38091D1020AD30091DE0241
:1012100063DF892B29F36CDF482F87FF15C0582F18
:1012200052955F705F3051F0282F30E02F70307092
:101230008091D10290E02817390719F45093580291
:1012400003C010925802CCCF80915802883071F0C0
:10125000893009F0C5CF47FD02C0142F02C048DF16
:10126000182F46DF682F812F8DDFBACF47FD02C0D0
:10127000142F02C03DDF182F3BDF682F812F78DF4E
:10128000AFCF90E008D8803108F08FE0089583E078
:10129000F8DF8093D10284E0F4DF8093B00287E02E
:1012A00090E00E944B01833611F41092B00188E067
:1012B00090E00E944B01833619F481E08093810213
:1012C00008951F920F920FB60F9211242F933F9300
:1012D0004F935F936F937F938F939F93AF93BF933E
:1012E000EF93FF939CB1983FA1F480913B02823031
:1012F00011F40E94CF008091CB03882349F18091A3
:10130000590290915A02019690935A028093590281
:101310001FC080915D02E82FF0E0EF54FD4F9083F5
:101320008F5F80935D0280915D028F7180935D027B
:1013300090915D0280915C02981751F480915C025B
:101340008F5F80935C0280915C028F7180935C025E
:10135000FF91EF91BF91AF919F918F917F916F918D
:101360005F914F913F912F910F900FBE0F901F9063
:10137000189580913B02813009F09798089590B3B9
:10138000991F9927991F80916402882331F499232A
:1013900021F09093640281E008959093640280E0CC
:1013A000089590B3991F9927991F8091650288230A
:1013B00031F0992321F41092650281E00895909311
:1013C000650280E0089581B3806F81BB82B38F7026
:1013D00082BB089581B38F7081BB82B38F7082BB53
:1013E00008951F930E94C900182F80913B028130FD
:1013F000E1F0112309F01CD99498979A85E023DE37
:101400008091AD029091AE020A97909389008093EB
:10141000880010925E0210925F0210923C020E94BD
:101420007000112311F00E94C3001F910895AC01B8
:10143000F894C0980000000000000000C09A20E06E
:1014400030E01FB8779BFECF8FB1FA01E20FF31F98
:1014500080832F5F3F4F2330310599F778940895AB
:10146000DE980895DE9A089529B3269526952F7063
:10147000822F90E02695322F369536952270322BAA
:10148000880F991F282F2470322B880F991F880FDF
:10149000991F8870382B8FE0831B089589B3869538
:1014A00086958F700895282FFB01883110F080E019
:1014B0000895869586958695E80FF11D808190E0C8
:1014C000277002C0959587952A95E2F78170089557
:1014D00068ED72E0E8CF64ED72E0E5CF6BED72E0AD
:1014E000E2CF8091D802882359F48091D9028823D1
:1014F00039F490E08091DA02882319F491E001C078
:1015000090E0892F08950F931F93CF93DF93062FB9
:10151000EC0110E009C08991DBDF912F9F5F8823E8
:1015200011F0892F04C0192F1017A8F380E0DF9164
:10153000CF911F910F9108958DE391E06DE0E3DF6E
:10154000815008958DE491E068E0DDCF0F931F9303
:10155000CF93DF93062FEC0110E009C08991BBDF28
:10156000912F9F5F882311F0892F04C0192F101726
:10157000A8F380E0DF91CF911F910F9108958DE442
:1015800091E068E0E3CF8DE391E060E1DFCF8DE3B0
:1015900091E06DE0DBCF80916702109267020895C1
:1015A000A6E0B0E0E6EDFAE00C942A1E9091AC02C1
:1015B0008091AB02981721F08091AC020E949602B4
:1015C0001092D4021092DB021092D5021092DC022B
:1015D0001092D6021092DD0280916802843108F4E4
:1015E0008FC0109268023CDF8E010F5F1F4FC80151
:1015F0001EDF8091D8028C838091D9028D838091E7
:10160000DA028E8340E050E061E0E62EF12CE42F18
:10161000E695E695E695F0E0BF0168527D4FDB0167
:101620003C91CA0187709070D70102C0AA0FBB1FFE
:101630008A95E2F7CD01DF01A152BD4FAC91A823FD
:10164000E00FF11FE081E823232F28238095222338
:1016500011F0EA2B01C0EA238323E82BDB01EC9392
:101660004F5F5F4F4831510591F6FEDE982F809114
:10167000DE02981749F08091D302981729F49093CD
:10168000DE0281E0809367029093D302EBDE40E0BC
:1016900050E08E010F5F1F4FBE016C5F7F4FDA017C
:1016A000A152BD4FF801E40FF51F80818C93FB011F
:1016B000E40FF51F2081FA01E852FD4F9081FA01F5
:1016C000EC52FD4F822F809589238083FA01E552E9
:1016D000FD4F9095922390834F5F5F4F43305105AC
:1016E000F1F6DCDE982F8091D702981731F08091C7
:1016F000D202981711F49093D7029093D20254D14A
:101700002696E6E00C94461EFB01982F969596953A
:101710009695E90FF11D877021E030E002C0220F9D
:10172000331F8A95E2F78081822B8083089569E6D2
:1017300072E0EACF6EE672E0E7CF982F9695969525
:101740009695EEE6F2E0E90FF11D877021E030E0BA
:1017500002C0220F331F8A95E2F72095808128234B
:1017600020830895982F977021E030E002C0220F67
:10177000331F9A95E2F7869586958695EEE6F2E018
:10178000E80FF11D808182230895982F96959695F4
:101790009695E9E6F2E0E90FF11D877021E030E06F
:1017A00002C0220F331F8A95E2F7209580812823FB
:1017B00020830895982F969596959695E9E6F2E000
:1017C000E90FF11D208130E0877002C03595279523
:1017D0008A95E2F721703070C901089510926D0268
:1017E00010926C0210926B0210926A0210926902BF
:1017F00010927202109271021092700210926F0297
:1018000010926E020895CF93DF93C2E8D1E08991E0
:10181000BCDF81E0C239D807D1F7DF91CF910895BD
:10182000E2E8F1E0E80FF11D808181CFE2E8F1E02C
:10183000E80FF11D80817ECFE2E8F1E0E80FF11DB5
:101840008081B8CFE2E8F1E0E80FF11D80818ACF16
:10185000EAE6F1E0E80FF11D808169CFEAE6F1E008
:10186000E80FF11D808166CFEAE6F1E0E80FF11D97
:1018700080818BCFCF93DF93CAE6D1E0899185DF5A
:1018800081E0C238D807D1F7DF91CF910895E82FD2
:101890008150883028F4F0E0EF59FE4F808147CF27
:1018A00008950F931F93CF93DF93082FC2E6D1E0E3
:1018B00011E0101739F4E12FF0E0EF59FE4F80816D
:1018C00036DF02C0888161DF1F5F2196193089F7FA
:1018D000DF91CF911F910F910895E82F81508830AB
:1018E00028F4F0E0EF59FE4F80814FCF0895E82FA4
:1018F0008150883028F4F0E0EF59FE4F80811ACFF4
:101900000895E82F8150883010F080E00895F0E0CD
:10191000EF59FE4F808126CFE82F8150883010F09C
:1019200080E00895F0E0EF59FE4F808143CFCF93E0
:10193000DF93C2E6D1E0899128DF81E0CA36D8077B
:10194000D1F7DF91CF910895E5E5F1E0E80FF11DC2
:101950008081EDCEE5E5F1E0E80FF11D808115CF46
:10196000E5E5F1E0E80FF11D8081E4CEE5E5F1E089
:10197000E80FF11D8081F6CECF93DF93C5E5D1E06E
:10198000899103DF81E0C236D807D1F7DF91CF918B
:101990000895F2DF84E0F9DE83E0F7DE88E0F5DE2B
:1019A00081E0F3DE82E0F1CEF894DF98E9E6F2E040
:1019B00080818FB9779BFECF319682E0EE36F807B3
:1019C000B9F7DF9A78940895E9E6F2E0AEE6B2E07E
:1019D00080819D91892B819382E0EE36F807C1F7D3
:1019E0000895E9E6F2E0AEE6B2E09D91909580813F
:1019F0008923819382E0EE36F807B9F70895E9E686
:101A0000F2E0AEE6B2E020819C91892F822319F0AA
:101A10009095922390831D92319682E0EE36F807DE
:101A200091F708951F93182F84E0AFDE123019F458
:101A300083E080DE0CC083E0A8DE83E07EDE113030
:101A400011F483E003C01F3F11F484E070DE1F91A6
:101A500008950F931F93CF93DF93182F87FF03C031
:101A600086E1F6DE02C086E1FFDE812F8295869553
:101A70008695837080FF03C085E1EADE02C085E1C0
:101A8000F3DE1F7339F0173110F48FEF11C01432E9
:101A900018F41C5080E00CC0103318F4185181E089
:101AA00007C01C3318F4145282E002C0105383E0C4
:101AB000B9DF112321F460DF84E1CADE17C084E1BD
:101AC000D3DECBE0D0E0012F10E0C017D10729F022
:101AD000FE01E65BFE4F808158DE2196C831D105BC
:101AE000A1F7065B1E4FF801808121DEDF91CF91C7
:101AF0001F910F9108950F931F93FC0180E00EE05A
:101B00001CE1B8E3A0E750EE47EC39E817C02081AC
:101B10002827922F80E020FD87E091FD802792FD0D
:101B2000812793FD8B2794FD8A2795FD852796FDB8
:101B3000842727FD83276150704031966115710518
:101B400031F71F910F910895EF92FF920F931F931A
:101B5000CF93DF937C018B01C0E0D0E007C0F70199
:101B6000EC0FFD1F80810E9415012196C017D1073F
:101B7000B0F3CDB7DEB7E6E00C94461E0F931F938B
:101B800002EE12E092E49093E2021092E30292E0FD
:101B90009093E4021092E5028093E602C80165E0AA
:101BA00070E0A9DF8093E702C80166E070E0CCDF57
:101BB0001F910F9108950F931F9302EE12E090E88A
:101BC0009093E2021092E30291E09093E4028093FA
:101BD000E502C80164E070E08EDF8093E602C80190
:101BE00065E070E0B1DF1F910F9108951F920F9291
:101BF0000FB60F9211240F931F932F933F934F9380
:101C00005F936F937F938F939F93AF93BF93CF9384
:101C1000DF93EF93FF9313B180919201882309F42E
:101C2000CBC08091750290917602895E934020F03E
:101C3000EADDBADE1092730280917302803448F4B8
:101C4000E82FF0E0EE5DFC4F10838F5F809373020E
:101C500003C0B1DF109273021092760210927502E7
:101C600030917302333008F4A7C0009122039091A1
:101C7000230380E020912403622F70E0682B792BEE
:101C8000232F30E0CB0104962817390708F494C0BD
:101C9000EB012396FE01EE5DFC4F108182E293E0A2
:101CA000BE0129DF181761F082E293E0BE0123DF55
:101CB00090E00E9422011092730280E07CDF7CC0E1
:101CC0000131E1F0023138F4013009F46FC0003124
:101CD00009F44BC06DC0003419F0013429F068C01C
:101CE0008091AB024BDF66C080912403823009F003
:101CF0005FC0809126030E9496025CC080912403FD
:101D0000823009F055C080912503082F10E033E0A0
:101D1000000F111F3A95E1F780912603080F111D5E
:101D200024E0000F111F2A95E1F789E18093E20278
:101D30001092E30280E18093E402C5EED2E0C80194
:101D4000FAD089930F5F1F4F82E0C53FD807B9F7DC
:101D50008E0103511040C80163E170E0CCDE88833E
:101D6000C80164E170E0F0DE25C080912403823177
:101D7000F9F480912503082F10E093E0000F111F64
:101D80009A95E1F780912603080F111D84E0000F5A
:101D9000111F8A95E1F7C7E2D3E08991B8018ED08F
:101DA0000F5F1F4F23E0C733D207B9F781E001C0AF
:101DB00080E001DF10927302FF91EF91DF91CF91EC
:101DC000BF91AF919F918F917F916F915F914F9153
:101DD0003F912F911F910F910F900FBE0F901F9069
:101DE00018953A98611160E4442311F090E001C025
:101DF00090E8882331F0682B962B95BB3A9A399A54
:101E00000895962B95BB0895882311F0AE9A01C0D2
:101E100039983A980895FF920F931F93CF93DF93C9
:101E20000E941803F0DCBCDBB6DBFF24B9DB809139
:101E3000D702843031F091D9CDB7DEB7E5E00C940C
:101E4000471E8091B002F8DC882321F4DCDC80910D
:101E5000B002E6DCA0DB882341F06091DE026093F3
:101E6000B00284E090E00E945201CDE3D1E017E19E
:101E70000881802F30DB882341F0812F6F2D40E0D7
:101E8000B0DF812F06D9FF24F394802F27DB88232E
:101E900011F0812FE7D821961F5F143249F783B3E1
:101EA00090E08F739070892B09F4C0CF1ADB8823E0
:101EB00009F4BCCF80E0A8DF5FDDB7CF282FF8940E
:101EC00095E0C09800000000000000009FB9779BDB
:101ED000FECF00000000000000001FB8779BFECF7F
:101EE0008FB1C09A000000000000000080FDE9CF23
:101EF000C0980000000086E08FB9779BFECF0000FD
:101F00000000C09A0000000000000000C09800001F
:101F1000000082E08FB9779BFECF7FB9779BFECF21
:101F20006FB9779BFECF2FB9779BFECF00000000E3
:101F3000C09A78940895282FF894C0980000000063
:101F400083E08FB9779BFECF9FB9779BFECF2FB9E8
:101F5000779BFECF000000001FB8779BFECF8FB1AC
:101F6000C09A78940895682F20E030E0482F5527D4
:101F700047FD5095F901E658FC4F80818F7351F071
:101F8000DA01A80FB11DCD010B97C59718F4808118
:101F9000860F80832F5F3F4F2031310559F7089519
:101FA00081E08093640384E2C2DB2DDC80E038DCD6
:101FB00080E02ACF1092630381E08093650381E281
:101FC000B6DB80E021DF80913B02882321F4809101
:101FD0003C0280FDFCCF81E0809368038093CB03BB
:101FE0008AEF3AC80CDD46DC0EDC8091DE0218DC9C
:101FF00080E00ACF1092640384E2C7DB10927A0279
:1020000080E0C3DBEFCF10926803ECDF1092650332
:1020100081E2BBDB1092CB038CEF1ED810927C02C6
:1020200008958091CB03882309F180913B0282308F
:1020300061F48091590290915A0218161906B4F46D
:1020400010925A02109259020DC0813079F4809199
:102050006002909161021816190644F41092610210
:10206000109260020E9401050E94010580913B02CE
:10207000823071F456D8982F80937B02882341F0E8
:102080008091D702833021F4892F90E00C942201B3
:1020900008950F931F93CF93DF93182F062F84DC9F
:1020A000C12FD0E093E0CC0FDD1F9A95E1F7C00F70
:1020B000D11D84E0CC0FDD1F8A95E1F700E010E030
:1020C000F801E658FC4F8081B8016C0F7D1FF6DEE9
:1020D000A8DF0F5F1F4F0031110591F76091AB0230
:1020E00086E090E00E9452015FDCDF91CF911F916A
:1020F0000F9108950F931F93CF93DF93182F062FFF
:1021000053DCC12FD0E033E0CC0FDD1F3A95E1F76F
:10211000C00FD11D24E0CC0FDD1F2A95E1F700E0B0
:1021200010E0C8018C0F9D1F06DFF801E658FC4F38
:1021300080830F5F1F4F0031110599F710927A02CB
:1021400080E0FBDA31DCDF91CF911F910F91089590
:10215000A0E1B0E0EEEAF0E10C94271E82E0BBD9EA
:102160008823B1F080E0B4D9882391F48091B10143
:102170008F3029F480E18093B1018FEF04C08FE0AC
:102180008093B10181E08093890381E080937A029A
:1021900080916503882309F4D2C180E09CD988230B
:1021A00051F090E080917C02882309F491E09093B3
:1021B0007C0282E2EADA80917C02882309F4BFC1C2
:1021C00082E2B5DADE011196EAE7F3E080E1019000
:1021D0000D928150E1F700E010E0F801ED56FE4F5E
:1021E000808179D9882329F0802F6AE773E00E94E3
:1021F000D11C0F5F1F4F0530110579F787E06BD9B0
:10220000882359F180917902882361F080E090E081
:1022100027E1FC01E658FC4F2083019680319105AF
:10222000C1F716C080916703882369F01092670395
:10223000AAE7B3E0EAE6F3E080E101900D92815075
:10224000E1F741E006C08091DE026091660352DF53
:1022500040E088EC809379023CC18BE03CD9882334
:1022600029F08AE793E00E94881C32C184E133D9C7
:102270008823B9F020E030E0AE014F5F5F4FF901F5
:10228000E056FE4F8081FA01E80FF11D8081F901CF
:10229000E658FC4F80832F5F3F4F2031310579F79F
:1022A00017C185E118D98823E1F0EE24FF24F70156
:1022B000E658FC4F10811F7361F0808187FD105834
:1022C0000E94E9008E3108F4105CF701E658FC4FDB
:1022D00010830894E11CF11C80E1E816F10439F741
:1022E000F7C081E1F8D8882351F1EE24FF2487015B
:1022F00006581C4FF801D080FFE3DF22C1F00E9496
:10230000E900893138F483E38D1520F0F8018081EC
:10231000845F80830E94E900893148F4F6E1FD156D
:1023200030F4F701E658FC4F80818C50808308948C
:10233000E11CF11C80E1E816F104C9F6C9C08CE08B
:10234000CAD88823B9F000E010E0F801E658FC4F45
:1023500080818F7349F0208190E00B976CE070E0F2
:102360000E94E91D281B20830F5F1F4F00311105BC
:1023700061F7AEC08DE0AFD8882301F12FEF34E6CE
:1023800080E090E0FC01E658FC4FE081EF7331F013
:102390003E1720F0E43310F4282F3E2F01968031B1
:1023A000910581F72F3F09F493C0E22FFF27E7FD46
:1023B000F095E658FC4F8081845F52C082E18BD853
:1023C000882301F12FEF30E080E090E0FC01E65837
:1023D000FC4FE081EF7331F0E31720F0E73110F0AC
:1023E000282F3E2F01968031910581F72F3F09F468
:1023F0006FC0E22FFF27E7FDF095E658FC4F808184
:102400008C502EC083E167D8882319F08CE090E0CF
:1024100006C080E160D8882331F084EF9FEF6AE73F
:1024200073E0A1DD55C088E056D88823D9F021E0BB
:1024300030E097E1F901E658FC4F80818F3F09F4C5
:1024400090832F5F3F4F20313105A1F70E94E900B3
:102450006FE00E94BC1DE92FF0E0E558FC4F8FEFC4
:10246000808336C08EE037D8882319F08FEF9FEF36
:10247000D6CF8FE030D8882319F081E090E0CFCF1D
:1024800083E029D8882329F08AE793E00E94321C50
:102490001FC086E120D88823D9F0EE24FF24F7015D
:1024A000E658FC4F10811F7361F0808186FD105C3F
:1024B0000E94E9008E3108F41058F701E658FC4FED
:1024C00010830894E11CF11C90E1E916F10439F73E
:1024D00040E081E080937A0220E030E0BE016F5F4F
:1024E0007F4FF901E658FC4F9081FB01E20FF31F8B
:1024F0008081891771F0442361F4AAE6B3E0FB01FF
:1025000080E101900D928150E1F781E080936703B3
:1025100005C02F5F3F4F2031310519F787E10E9439
:102520006B0A882329F010927C0282E22ED907C020
:1025300081E00E946B0A882311F473DD83C271DD90
:10254000809165038823E1F080913B02882329F480
:1025500081E00E946B0A882379F480913B028230EB
:1025600029F480917B028C3F39F00AC0813041F41C
:102570000E94D109882321F046DD1092530218C031
:1025800080913B02882329F481E00E946B0A882312
:1025900049F480913B02823059F480917B028A5F3A
:1025A000823030F480916403882309F023DD02DD5A
:1025B00080916503882329F480916403882309F4BA
:1025C000E0C080915302882319F0E091620302C0B9
:1025D000E0916303CE2EDD24860106581C4FF801DE
:1025E000F080FFE3FF22FF1661F185E10E946B0A94
:1025F000882341F0F801808190E48927808381E07D
:1026000080937A0286E10E946B0A882349F0F601E2
:10261000E658FC4F80818058808381E080937A0265
:10262000F6E1FF1518F0EE24EA9413C083E28F154B
:1026300010F0EE240EC09FE29F1518F0EE24E394F4
:1026400008C0EBE3EF1518F453E0E52E02C042E0BA
:10265000E42E84E10E946B0A882311F0FF2423C03A
:10266000FFE3FF1601F1FF20F1F083E00E94680A0A
:10267000882351F48FE00E946B0A882329F081E0BF
:102680008E1514F09CE0F90E83E00E94680A8823FE
:1026900051F48EE00E946B0A882329F0EFEFEE16CA
:1026A00011F0F4EFFF0E0E94C70A882321F08CE09E
:1026B000E89EF02C112400E010E0B02EF801ED5659
:1026C000FE4F80810E946B0A882341F083E0E81668
:1026D00011F4801718F097E1F90EFB0C0F5F1F4FF4
:1026E0000D30110551F7F601E658FC4F80818F3F00
:1026F00019F4EFE3FE1631F4F601E658FC4F808141
:10270000807CF82AF601E658FC4F8081F816F9F033
:1027100080916403882329F080E076DB81E00E94C9
:1027200023088AE793E0C80ED91EF601F08281E003
:1027300080937A0280916403882349F04F2D42955B
:102740004695469541708F2D8F7360E04ADBFFEF11
:10275000FF1669F08F2D7DD980917A02882321F0B0
:1027600080E00E949A0B0DC080E00FD80AC011D9FA
:1027700080E00E949D0B83E00E949D0B80E00E9400
:10278000970B83E00E946B0A882319F188E00E946E
:10279000680A8823F1F040917A038091B101282FD3
:1027A00030E02150304090E005C08C91E658FC4F5D
:1027B00080839F5FE92FF0E0E217F30734F4DF0135
:1027C000A558BC4F8C918F3F81F7E658FC4F408352
:1027D00029C088E00E946B0A882341F183E00E94AF
:1027E000680A882319F160917A038091B101282F3A
:1027F00030E02150304040E008C050814F5FE42F6E
:10280000F0E0E658FC4F6083652F842F90E082173C
:10281000930734F4FC01E558FC4F80818F3F69F742
:1028200050937A0381E080937A02CEC088E00E94C0
:102830006B0A882331F483E00E946B0A882309F431
:10284000C3C080916403882309F465C08091AA0203
:10285000881F8827881FD8DA81E00E94230883E038
:102860000E946B0A882379F080916303882339F4EE
:102870008AE793E063E673E00E947E001FC08091C8
:102880006303815019C02091630330E02F5F3F4FF5
:102890008091B10190E02817390744F4E091630377
:1028A000F0E0E658FC4F80818F3F19F410926303EB
:1028B00005C0809163038F5F809363030E94030CC4
:1028C000809163030E94100CE0916303F0E0E658EE
:1028D000FC4F80818093AA028F3F69F481E00E94BF
:1028E000C50B82E00E94C50B80E00E94970B80E040
:1028F0000E949D0B69C080E00E94C50B80917A0206
:10290000882319F080E00E949A0B8091AA028F73AD
:1029100060E040E01FC088E00E946B0A882309F451
:1029200041C0809165038823D1F43ADB10926303A0
:10293000E0916303F0E0E658FC4F80818093AA02A7
:102940008F3F09F441C0482F429546954695417006
:102950008F7360E046DA8091AA027BD835C08091FF
:102960005302882321F481E08093530214C04091E4
:102970006203E42FF0E09F012F5F3F4F8091B10190
:1029800090E0281739072CF4E658FC4F80818F3FE0
:1029900029F4109253021092620316C04F5F4093C5
:1029A000620312C080915302882371F08091620308
:1029B000882339F48AE793E062E673E00E947E00A0
:1029C00003C081508093620387E10E946B0A8823D1
:1029D000C9F180916403882399F02091630330E06A
:1029E0002F5F3F4F8091B10190E0281739073CF4E9
:1029F000E0916303F0E0E558FC4F8FEF8083FADA53
:102A00001092530280E00E949A0B0BDB0E94D00AC6
:102A10008091DE02809369030E94A20A882319F044
:102A200081508093660387E10E946B0A882369F3D3
:102A300080916903609166032CDB10927A0280E03A
:102A40000E949D0B6096E9E00C94431E81E0809308
:102A500065037ECB0F931F930091D70210926603FC
:102A6000109264031092650310925302109268034F
:102A7000109263031092AA0280913B02882319F4FA
:102A80000E94C30004C00E9418030E94E3090E9430
:102A9000D00A8091DE0280936903609166032ADB8D
:102AA0000E94EE0B8091DE020E94100C0E94D00A60
:102AB0008091D702801799F00E9418031092680342
:102AC00080E0A2D90E94B9090E94B5080E94EE0BCD
:102AD0000E94D40C10927C021F910F910895909146
:102AE00069038091DE02981791F080916403882336
:102AF00009F080DA8091DE028093690360916603B9
:102B0000F9DA0E94030C8091DE020E94100C809181
:102B100065038823D1F4809164038823B1F4809104
:102B200066038F5F0E94470C0E94A20A182F882319
:102B300061F00E94BC0C812F0E94470C612F6150F4
:102B40006093660380916903D5DA02DBAFCFAC01F5
:102B500020E030E0DA01A20FB31F8C91FB01E20FFD
:102B6000F31F9081891711F080E008958C918F3FB9
:102B700029F02F5F3F4F2032310561F781E0089542
:102B8000809163038093CC0390918B029923B1F0E1
:102B900080918C02882391F4209163035091B401B9
:102BA00030E0852F90E001974091B3012817390755
:102BB00011F4842F1DC0541700F50BC080918C02B6
:102BC0008823D9F080918D0287FF06C08F5F8093A4
:102BD0008D02809163030CC0882321F08150809383
:102BE0008D020BC010928C02992321F08091B301C9
:102BF000815008958091B4010895809163038F5F9F
:102C00000895982F84528D3348F4953239F09732D5
:102C100029F080E09A3219F081E0089580E008956B
:102C2000A2E0B0E0E6E1F6E10C941E1EA090D7020F
:102C300080913B02882319F40E94C30002C00E94C5
:102C4000180380913B02813019F40E94EA0902C006
:102C50000E94E3090E94EE0B0E94FF0C1092AA034F
:102C60008091AA0380938A038FEF8093AB038091B6
:102C7000AB0380938B0381E00E94470C1092CB033F
:102C80001092CA03109278021092770210928A0270
:102C900010928B0210928C0281E08093B30180919C
:102CA000B1018093B40110928D020E94030C8091B7
:102CB000DE0280938702809388020E94100CCC244D
:102CC000DD249924BB24B39488248A943E0108947B
:102CD000611C711C5AE0352E49E0242E37E0532E3A
:102CE00022E1422E02C0CC24DD240E94D00A809131
:102CF000D7028A1549F0833039F4B0928A0281E212
:102D00000E949A0B10927D029091D7029A1509F1B8
:102D10008091CB038823E9F41092CB0310928A02AE
:102D20000E94B9090E94B5081092780210927702A9
:102D30001092520280915202809385028093860203
:102D40008093840210927D020E94EE0B0E94FF0C81
:102D50002EC480918A02882341F0933031F480910F
:102D6000CD038093660372DEC0CF80917D028823FD
:102D700069F482E00E946B0A882341F087E10E9497
:102D8000680A882319F495E0E92E01C0EE248091A9
:102D90007D02882319F4EE2009F4E2C08091D70265
:102DA0008A1531F49091DE0280918702981711F014
:102DB00010927D0282E00E946B0A882369F0EE2067
:102DC00059F40E94EE0B8091CB03882319F081E225
:102DD0000E94970B10927D0287E10E946B0A882364
:102DE00011F404E617C00E94030C109241021092E5
:102DF000420210923E0210923F0210924002109244
:102E000089024092B20180917D02873011F000E08A
:102E100001C007E08FE00E946B0A882321F484E65A
:102E2000F82E10E005C0B0927D02F090400213E051
:102E30008EE00E946B0A882331F082E080937D024D
:102E4000F090420214E086E10E946B0A882331F080
:102E500083E080937D02F0903F0212E085E10E94C2
:102E60006B0A882331F084E080937D02F0903E026B
:102E700011E084E10E946B0A882331F085E08093A1
:102E80007D02F090410218E083E00E946B0A8823E3
:102E900071F086E080937D02909189028FE0989F87
:102EA000C001112464E670E094D6062F13E288E096
:102EB0000E946B0A882319F485E0E81641F45092C9
:102EC0007D028091B2010E946500082F14E284E027
:102ED0000E946B0A882331F088E080937D02009184
:102EE000440210E285E00E946B0A882329F02092B8
:102EF0007D020091430219E186E00E946B0A88235B
:102F000029F030927D02009108011AE18DE00E94C3
:102F10006B0A882389F090E080918102882309F46C
:102F200091E090938102913011F060E001C063E67E
:102F300088E090E00E945201112329F00E94EE0BDC
:102F4000812F0E94970BE3E6EF1528F08F2D63E0A9
:102F500013D6082F02C0043618F4802F0E94100CDC
:102F600080917D02882369F40E946B0A882349F0CE
:102F70000E94BC0C0E94FF0C82E20E94970B1092F0
:102F8000820280917D02882399F50E946E0A88232F
:102F900079F120E030E0F901E353FC4F8081F90141
:102FA000E657FC4F80832F5F3F4F2032310599F762
:102FB0008091CB038823C9F420E030E0F901E65783
:102FC000FC4F8081F901E655FC4F80832F5F3F4F16
:102FD0002032310599F7809178028093770283E05F
:102FE0000E94C50B84E00E94C50B82E20E94C50BC3
:102FF00080917D02882371F50E94680A882351F12F
:1030000010E00BC0E12FF0E0E353FC4F80818830EB
:1030100040F48F5F0E94470C1F5F80918202181757
:1030200088F30E94BF0A882309F454C29091820257
:10303000903208F04FC2E92FF0E0E353FC4F81508B
:103040008083E92FEF5FE0938202F0E0E353FC4FCF
:10305000808240C280917D02882309F078C08FE091
:103060000E94680A882331F48EE00E94680A88234F
:1030700009F46DC00E949C0A182F8FE00E946B0A11
:10308000882329F48EE00E946B0A882339F00E947D
:10309000BC0C0E94FF0C82E20E94C50B8FE00E94D4
:1030A000680A882301F184E00E94C50B83E00E9436
:1030B000970B1F3F11F0109378028091770287FDE4
:1030C0000AC00E94B60C882331F40E94FF0C809144
:1030D00077020E94B00C9091780280917702981745
:1030E00061F1892F28C08EE00E94680A882329F1A7
:1030F00083E00E94C50B84E00E94970B1F3F19F0EC
:103100001C501093780280917702181664F0845F47
:103110000E94B60C882339F40E94FF0C809177023C
:10312000845F0E94B00C909178028091770298178A
:1031300021F0892F845F0E94A40C8091CB03882307
:1031400009F0C8C18091780280937702C3C1809151
:103150007D02882309F046C08FE00E946E0A882312
:1031600029F48EE00E946E0A882321F00E94BC0C94
:103170000E94FF0C0E94A20A182F87E10E94680A91
:10318000882381F5112309F058C30E94CB0A8823B4
:1031900049F19091DE02909388028091CB038823BD
:1031A00089F012C020E030E0F901E657FC4F808141
:1031B000F901E655FC4F80832F5F3F4F20323105E8
:1031C00099F702C0909387028091CB03882351F432
:1031D0000E94030C809188020E94100C809178025A
:1031E0008093770280913B02823021F00E94910807
:1031F00080937B0280913B02823009F0F1C02091E4
:103200007B0230E02F7030708091D10290E028175F
:10321000390709F0EDC080917B0290E0807F9070CB
:103220008039910549F0803B910509F4D0C0803880
:10323000910509F4BCC0DCC00E947808182F0E94D8
:10324000780818160CF0A9C014325CF4812F6CE0D9
:103250009FD480937E02812F6CE09AD490937F025A
:10326000C7C0153241F480918302882309F4C0C09D
:1032700010928302BFC01732B1F480918002909106
:103280008302882349F4B0928002992309F4B0C0E4
:103290009F5F90938302ACC010928002992309F43F
:1032A000A7C0892F8EC01A3291F490E08091B001AE
:1032B000882309F491E09093B001992311F060E024
:1032C00001C063E687E090E00E94520191C0812F27
:1032D00084528D3008F040C080918302882311F021
:1032E0001A820BC080918002882319F481E08A83BE
:1032F00004C0B0928302E1E0EA83809183028F5F91
:1033000080938302E12FFF27E7FDF095EF56FE4FF4
:1033100010810E94EE0B1093AA038091AA03809360
:103320008A038092AB038091AB0380938B036091FF
:10333000AA03809187020E947A1019828AE793E09B
:10334000B3010E947E00909163038981981708F46D
:1033500053C01092630350C0812F8153803308F013
:1033600047C08B50809378028093770280918302CC
:10337000882311F01A820BC080918002882319F4EF
:10338000F1E0FA8304C0B092830281E08A838091E5
:1033900083028F5F809383022FC0009183020023FA
:1033A00039F1812F2EDC882319F1802F0AC00E9469
:1033B0007808109183021123D9F023DC8823C1F00F
:1033C000812F8150809383028823A1F011C00E9435
:1033D00078088B3769F410928302E2E0EA830CC02C
:1033E00010927E021092830210927802109277025D
:1033F0001A8202C0F2E0FA8380917D02882309F0EC
:103400006AC08AE893E06AEA73E0A1DB882301F5E9
:1034100080918B038F3F49F48091AB038F3F29F458
:103420008091AA038F5F0E94770C00E010E0F80102
:10343000E657FC4F8081893008F04DC080818F5F56
:103440000E94470C0F5F1F4F0032110581F743C0E8
:10345000EE24FF24870106551C4FF8018081893036
:10346000D0F58091CB038823D9F08081E091CA0305
:10347000F0E0E655FC4F9081891791F4F8018081C6
:103480008F5F0E94810C8823E9F4F80180818F5FAF
:103490000E946D0CF80180818F5F0E94770C12C032
:1034A000F701E655FC4F80818F5F0E94810C8823D5
:1034B00011F00E94FF0CF701E655FC4F80818F5FF1
:1034C0000E94470C0894E11CF11CF0E2EF16F10495
:1034D00009F601C01A820E94111080913B028823D4
:1034E00049F481E00E946E0A882321F08091CB0389
:1034F0008823E1F48091CB03882339F08A818230DC
:1035000021F480917D02882389F080913B028230F2
:1035100029F480917B028C3F49F04EC0813009F044
:103520004BC00E94D109882309F446C01092CB03F6
:10353000109283021092680310928B0210928C02F8
:10354000B092B3018091B1018093B40110928D02C9
:1035500080E00E94040F0E94B50880913B028130F8
:1035600011F00E94B9090E94700081E20E94C50B0F
:103570000E94FF0C0E94030C8091DE020E94100C3E
:103580008091D7028A1509F485C010928A021092A0
:103590007802109277021092520280915202809328
:1035A000850280938602809384020E94EE0B0E9423
:1035B000D40C2296E2E15EC380913B02882349F459
:1035C00081E00E946E0A882321F08091CB0388233A
:1035D000E9F0EA81E130D1F08091B001882361F017
:1035E00080913B02823041F480917B028A3F71F0EE
:1035F00080917B028B3F51F080913B02813009F03A
:1036000049C00E94BF09882309F444C081E20E9496
:10361000970B0E94CB0A882329F06091AA0380911E
:10362000DE0204C06091AA03809187020E947A1092
:103630001092AA0280913B02823021F480917B0299
:103640008B3F21F01092CA031092630310923C0248
:103650000E94700010923A028091810290E0909353
:103660005A028093590210925E0210925F021092E9
:1036700061021092600210925202B092CB03B0929B
:1036800068038AEF0E942C0880913B02813011F080
:103690000E94F10980918A02882369F08091D70203
:1036A000833049F010928A02109253020E94EE0B6E
:1036B00081E20E94970B80917D02882309F015CB4F
:1036C00087E10E94680A8823C9F082E00E946B0AA1
:1036D000882351F090E080918E02882309F491E0D4
:1036E00090938E02992493940E94C30ACC2011F4E3
:1036F000C82E3AC0DD20C1F5D82E36C086E10E9422
:103700006B0A882329F486E10E946E0A882341F01F
:1037100090E080918502882309F491E090938502DE
:1037200085E10E946B0A882329F485E10E946E0AD4
:10373000882341F090E080918402882309F491E08D
:103740009093840284E10E946B0A882329F484E127
:103750000E946E0A882341F090E0809186028823BF
:1037600009F491E09093860280E00E94680A882321
:1037700041F588E00E946B0A882341F083E00E94B3
:10378000680A882319F0FCD98093630383E00E94C0
:103790006B0A8823B1F088E00E94680A882389F0C8
:1037A0008091CC038093630380918C02882349F03D
:1037B00080918D0287FF02C0815001C08F5F80938E
:1037C0008D0287E10E946E0A882309F48ECA99202F
:1037D00011F099248ACAB0928C029091630380916F
:1037E000B4018150891B80938D02CC2059F4DD20D7
:1037F00069F4B092B3018091B1018093B401109249
:103800008B0273CADD2011F4CC246FCAEC2DF0E0DA
:10381000E758FC4F80818F3F09F465CAED2DF0E039
:10382000E758FC4F80818F3F09F45DCAB0928B024C
:10383000C092B301D092B40156CA0E94970C1150A5
:1038400010938A0380918A038093CD0380928B0327
:1038500080918B038093CE038091CB03882309F45E
:10386000A1CCB2CCCF93DF93EC010E94E90063E0DE
:1038700083D1923000F561E0492F50E04E5F5F4FF9
:103880000BC0FE01E20FF31F80818D932F5F3F4F2E
:1038900024303105B1F76F5F262F30E04217530710
:1038A00094F0D901AA0FBB1FAA0FBB1FAC0FBD1FFD
:1038B00020E030E0E6CFFE0190E0808180879F5FCE
:1038C00031969830D1F7DF91CF9108951F93CF9320
:1038D000DF93162FC82FD0E0CC0FDD1FCE53DE4F65
:1038E0000E94E9006CE048D1292F88819981022E3D
:1038F00002C0969587950A94E2F780FFF1CF2223C4
:1039000079F3121768F3822FDF91CF911F910895F9
:10391000A0E0B0E0EDE8FCE19BC1082FF92E0E9489
:10392000E90043E0C42EC8220E94E90069E024D1E6
:10393000292F30E08BE090E0289FF001299FF00DC7
:10394000389FF00D1124E653FE4FD08012850E945F
:10395000E900811718F034E6E32E02C026E0E22EDB
:10396000802F9F2D9C01E90100E01881812F90E0BC
:103970008F739070892B69F00E94E9008D1510F00B
:1039800080E003C08C2D6E2DA1DF107C195E180F16
:1039900018830F5F2196003141F7CDB7DEB7E8E01D
:1039A00073C1AAE0B0E0E6EDFCE148C1982E5B01EE
:1039B0000E94E90094E0991619F069E0DDD004C096
:1039C00090918F02909090029092900290938F022B
:1039D000292F30E08BE090E0289FF001299FF00D27
:1039E000389FF00D1124E653FE4FA081A887B181C6
:1039F000BF8382818E83838094819D83A581AC83E4
:103A0000B681BB8387818A832084918599831285BF
:103A10000E94E900382E882D63E0AED0682E0E9407
:103A2000E90065E0A9D0F92E0E94E900811718F09D
:103A3000B4E67B2E02C0A6E07A2ECC2400E0EF2C68
:103A4000FF24EE0CFF1CADE2B2E0EA0EFB1E412C9F
:103A5000E0E85E2E0E94E900BD818B1718F0DD249E
:103A6000D39412C00E94E900EC818E1718F473E021
:103A7000D72E0AC00E94E900FB818F1718F464E07A
:103A8000D62E02C052E0D52ED7012C91361498F4D0
:103A9000C201002E02C0969587950A94E2F7182F6E
:103AA00012230E94E9008F3030F00C3048F00E9461
:103AB000E9008E3128F40E94E900881568F402C0FC
:103AC000112351F0F501E00FF11D80E011928F5F9D
:103AD0008D15E0F3CC2442C00E94E900B8858B1715
:103AE00010F080E003C0892D672DF0DE182F195EDD
:103AF0000E94E900EF818E1748F40E94E900FE81E0
:103B00008F1710F08CE001C084EF180FC501800FF3
:103B1000911D9A878987FC0180E0912F905810832E
:103B2000811190838F5F31968D15C8F30E94E90053
:103B30009A81891728F4A985BA858C91805C8C9329
:103B40001C1559F0CC2049F00E94E900821528F498
:103B5000E985FA85808180588083C12E0D0D003162
:103B600008F478CF0E94E900F9818F1710F4C5019D
:103B700079DE2A96E2E17EC0991B79E004C0991FA4
:103B8000961708F0961B881F7A95C9F780950895B7
:103B900087FB082E062687FD819567FD6195ECDF82
:103BA0000EF4919507FC81950895AA1BBB1B51E16A
:103BB00007C0AA1FBB1FA617B70710F0A61BB70B9D
:103BC000881F991F5A95A9F780959095BC01CD0142
:103BD000089597FB092E07260AD077FD04D0E5DF6C
:103BE00006D000201AF4709561957F4F0895F6F77E
:103BF000909581959F4F0895A1E21A2EAA1BBB1B99
:103C0000FD010DC0AA1FBB1FEE1FFF1FA217B307A8
:103C1000E407F50720F0A21BB30BE40BF50B661FBE
:103C2000771F881F991F1A9469F760957095809582
:103C300090959B01AC01BD01CF0108952F923F9259
:103C40004F925F926F927F928F929F92AF92BF92AC
:103C5000CF92DF92EF92FF920F931F93CF93DF9358
:103C6000CDB7DEB7CA1BDB0B0FB6F894DEBF0FBEB5
:103C7000CDBF09942A88398848885F846E847D8402
:103C80008C849B84AA84B984C884DF80EE80FD8004
:103C90000C811B81AA81B981CE0FD11D0FB6F8947A
:103CA000DEBF0FBECDBFED010895EE0FFF1F0590E3
:0A3CB000F491E02D0994F894FFCF81
:103CBA00D2048D35193678780F780001000100009A
:103CCA0001000100010000010000FF00010000FFE7
:103CDA0000FF07000F001F003F00FF00FF0303045F
:103CEA000506080A0206070304057F20640409057D
:103CFA000A06070B110C120D1013141516040506EB
:103D0A000711121013201B191C1A180F0C0E0B0D79
:103D1A000A0920191A180C0B0A092221252320192D
:103D2A001A18241B1C0F0E0D04030A0C0B09080198
:103D3A00020026271D1E1F1012111314151617052F
:103D4A000607010409050A06070B110C120D1013C8
:103D5A000607080B0C0D0E0F010203040500090AE1
:103D6A0001101201100000010102030304040505F9
:103D7A000607FF0FA904AD05B506141414000000C8
:103D8A0000190023281414140000000019191E1E1B
:103D9A00322814000000001923191E1E1414140AD4
:103DAA0000001919191E3228001E1E0000232319AB
:103DBA001E2319140F1E1E1E1919191E46321E051E
:103DCA00050505282800002319141446282819195E
:103DDA0000282319141E46282819190028DDDD7722
:083DEA00775555B66DCCCC00F5
:00000001FF
